:100000000C945D000C9485000C9485000C94850084
:100010000C9485000C9485000C9485000C9485004C
:100020000C9485000C9485000C9485000C9485003C
:100030000C9485000C9485000C9485000C9485002C
:100040000C947E040C9485000C94EE040C94C8046B
:100050000C9485000C9485000C9485000C9485000C
:100060000C9485000C94850000000008000201003B
:100070000003040700000000000000000000000072
:10008000250028002B0000000000240027002A0083
:10009000040404040404040402020202020203032E
:1000A0000303030301020408102040800102040836
:1000B0001020010204081020200511241FBECFEFDC
:1000C000D8E0DEBFCDBF11E0A0E0B1E0E0E9F1E1B2
:1000D00002C005900D92A037B107D9F722E0A0E742
:1000E000B1E001C01D92A432B207E1F710E0CDE506
:1000F000D0E004C02197FE010E947F06CC35D107D5
:10010000C9F70E9453050C94C6080C94000090E0B7
:10011000FC01EC55FF4F2491FC01E057FF4F849107
:10012000882399F090E0880F991FFC01EA57FF4F50
:10013000A591B491FC01E458FF4F859194918FB73C
:10014000F894EC91E22BEC938FBF089590E0FC01C2
:10015000E859FF4F3491FC01EC55FF4F2491FC010D
:10016000E057FF4FE491EE2309F43BC0332339F10C
:10017000333091F038F43130A9F0323001F584B5E4
:100180008F7D12C0373091F03830A1F03430B9F49F
:10019000809180008F7D03C0809180008F77809355
:1001A00080000DC084B58F7784BD09C08091B000F8
:1001B0008F7703C08091B0008F7D8093B000F0E016
:1001C000EE0FFF1FE458FF4FA591B4918FB7F8943D
:1001D000EC91611103C020952E2301C02E2B2C938E
:1001E0008FBF08953FB7F89480918101909182016B
:1001F000A0918301B091840126B5A89B05C02F3F33
:1002000019F00196A11DB11D3FBFBA2FA92F982F3C
:100210008827820F911DA11DB11DBC01CD0142E0B7
:10022000660F771F881F991F4A95D1F708958F92FF
:100230009F92AF92BF92CF92DF92EF92FF926B01AB
:100240007C010E94F2004B015C01C114D104E10465
:10025000F104F1F00E94F200DC01CB018819990948
:10026000AA09BB09883E9340A105B10570F321E0BE
:10027000C21AD108E108F10888EE880E83E0981EC2
:10028000A11CB11CC114D104E104F10419F7DDCFA4
:10029000FF90EF90DF90CF90BF90AF909F908F90A6
:1002A0000895CF92DF92EF92FF920F931F93CF9317
:1002B000DF936C017A018B01C0E0D0E0CE15DF0541
:1002C00089F0D8016D918D01D601ED91FC910190DD
:1002D000F081E02DC6010995892B11F47E0102C041
:1002E0002196ECCFC701DF91CF911F910F91FF9025
:1002F000EF90DF90CF900895FC01918D828D98173B
:1003000061F0828DDF01A80FB11D5D968C91928DF9
:100310009F5F9F73928F90E008958FEF9FEF0895F6
:10032000FC01918D828D981731F0828DE80FF11DBF
:10033000858D90E008958FEF9FEF0895FC01918DDA
:10034000228D892F90E0805C9F4F821B91098F73D3
:100350009927089585E891E00E949E0121E0892B6C
:1003600009F420E0822F0895FC01848DDF01A80F9D
:10037000B11DA35ABF4F2C91848D90E001968F73CD
:100380009927848FA689B7892C93A089B1898C91EC
:1003900080648C93938D848D981306C00288F389B2
:1003A000E02D80818F7D80830895EF92FF920F93DF
:1003B0001F93CF93DF93EC0181E0888F9B8D8C8D11
:1003C000981305C0E889F989808185FD24C0F62E3F
:1003D0000B8D10E00F5F1F4F0F731127E02E8C8DD8
:1003E000E8120CC00FB607FCFACFE889F9898081C2
:1003F00085FFF5CFCE010E94B401F1CF8B8DFE01B8
:10040000E80FF11DE35AFF4FF0820B8FEA89FB8959
:100410008081806207C0EE89FF896083E889F9895D
:1004200080818064808381E090E0DF91CF911F9193
:100430000F91FF90EF900895CF93DF93EC01888D9B
:100440008823C9F0EA89FB89808185FD05C0A889D8
:10045000B9898C9186FD0FC00FB607FCF5CF80815E
:1004600085FFF2CFA889B9898C9185FFEDCFCE01A8
:100470000E94B401E7CFDF91CF91089580E090E032
:10048000892B29F00E94AA0181110C940000089583
:1004900008958EBD00000DB407FEFDCF8EB5089502
:1004A0008CBD9DBD0895009769F0FC01019000206E
:1004B000E9F73197AF01481B590BBC0185E891E082
:1004C0000C94510180E090E008958F929F92AF923A
:1004D000BF920F931F93CF93DF93CDB7DEB7A19752
:1004E0000FB6F894DEBF0FBECDBF19A2423008F49C
:1004F0004AE08E010F5D1F4F842E912CA12CB12C50
:10050000A50194010E945D06E62FB901CA010150C0
:100510001109EA3014F4E05D01C0E95CD801EC9304
:10052000232B242B252B61F7C8010E945302A1968F
:100530000FB6F894DEBF0FBECDBFDF91CF911F91F4
:100540000F91BF90AF909F908F9008954F925F92C0
:100550006F927F928F929F92AF92BF92CF92DF92D3
:10056000EF92FF92CF93DF936B017C01B42E9B013E
:10057000AC010E94BC08882319F081E191E01AC007
:1005800026013701E89477F82FEF3FEF4FE75FE759
:10059000C301B2010E94BC08811110C02FEF3FEFD0
:1005A0004FE75FE7C301B2010E94F206181634F468
:1005B00085E191E00E945302EC0195C02FEF3FEFDF
:1005C0004FE75FE4C701B6010E944A0818161CF401
:1005D00089E191E0EFCF2FEF3FEF4FE75FECC701ED
:1005E000B6010E94F20687FDF3CF20E030E0A901BA
:1005F000C701B6010E94F20687FF11C0E091850194
:10060000F09186010190F081E02D6DE285E891E0A6
:100610000995EC01F7FAF094F7F8F09402C0C0E005
:10062000D0E0A12C60E070E080E09FE3AB1440F4E8
:1006300020E030E040E251E40E94F706A394F6CFB8
:100640009B01AC01C701B6010E9486062B013C014B
:100650000E9469076B017C010E9498079B01AC0115
:10066000C301B2010E9485062B013C014AE0C7018B
:10067000B6010E946502C80FD91FBB2069F0E09146
:100680008501F09186010190F081E02D6EE285E810
:1006900091E00995C80FD91FFB2CFF2021F120E024
:1006A00030E040E251E4C301B2010E944F082B0147
:1006B0003C010E9469074B01A12CB12C4AE0C50105
:1006C000B4010E946502C80FD91FC501B4010E9480
:1006D00098079B01AC01C301B2010E9485062B0162
:1006E0003C01FA94DACF8DE191E00E9453028C0F25
:1006F0009D1FDF91CF91FF90EF90DF90CF90BF9043
:10070000AF909F908F907F906F905F904F900895E3
:10071000DF92EF92FF920F931F93CF93DF93E3E764
:10072000F1E0228140E4249F900111242160306295
:100730008081877090E0982F8827990F990F282B38
:10074000392B8181877040E8849FC0011124822B5E
:10075000932B4381477028E0429FA0011124842BF2
:10076000952B2481237030E0220F331F822B932B93
:10077000880F991F880F991F9093710180937001C2
:1007800080E291E00E9453026091700170917101CA
:1007900080E090E040E10E9465028DE191E00E94DE
:1007A0005302F09000018F2D0E9487008091220259
:1007B000909123020E94500260E08F2D0E94A600BB
:1007C000E0907001D09071018D2D0E9449028E2D14
:1007D0000E94490280E00E944902C82FD0E0DC2F2D
:1007E000CC2780E00E944902C82B61E08F2D0E9437
:1007F000A60003E110E0C8010197F1F760E08F2D3A
:100800000E94A6008D2D0E9449028E2D0E94490251
:1008100061E08F2D0E94A600C8010197F1F78FE2D9
:1008200091E00E945302BE0180E090E040E10E940E
:1008300065028DE191E0DF91CF911F910F91FF90C3
:10084000EF90DF900C945302EF92FF920F931F935F
:10085000CF93DF9390917401891721F080937401F5
:100860000E948803F090000160E08F2D0E94A60096
:1008700061E08F2D0E94A60003E110E0C8010197FE
:10088000F1F780912202909123020E94500260E0D1
:100890008F2D0E94A600E0907001809171010E944E
:1008A0004902C82FD0E0DC2FCC278E2D0E944902B0
:1008B000C82B61E08F2D0E94A600C8010197F1F7B7
:1008C000BE0180E090E00E9498072091780130916D
:1008D000790140917A0150917B010E944F0820E0FC
:1008E00030E040E857E30E944F08DF91CF911F911D
:1008F0000F91FF90EF9008950E94C1081F920F92F0
:100900000FB60F9211242F933F938F939F93AF9322
:10091000BF9380917D0190917E01A0917F01B09164
:10092000800130917C0123E0230F2D3720F40196C4
:10093000A11DB11D05C026E8230F0296A11DB11D02
:1009400020937C0180937D0190937E01A0937F0191
:10095000B09380018091810190918201A0918301E7
:10096000B09184010196A11DB11D809381019093E6
:100970008201A0938301B0938401BF91AF919F91B5
:100980008F913F912F910F900FBE0F901F90189550
:100990001F920F920FB60F9211242F933F934F93F4
:1009A0005F936F937F938F939F93AF93BF93EF93D7
:1009B000FF9385E891E00E94B401FF91EF91BF9110
:1009C000AF919F918F917F916F915F914F913F91E7
:1009D0002F910F900FBE0F901F9018951F920F929E
:1009E0000FB60F9211242F938F939F93EF93FF9342
:1009F000E0919501F09196018081E0919B01F09149
:100A00009C0182FD12C0908180919E018F5F8F7347
:100A100020919F01821751F0E0919E01F0E0EB5789
:100A2000FE4F958F80939E0101C08081FF91EF91D1
:100A30009F918F912F910F900FBE0F901F9018953F
:100A4000E5E8F1E01382128288EE93E0A0E0B0E0E6
:100A500084839583A683B78385E091E09183808327
:100A600085EC90E09587848784EC90E09787868773
:100A700080EC90E0918B808B81EC90E0938B828B6B
:100A800082EC90E0958B848B86EC90E0978B868B44
:100A9000118E128E138E148EE2E2F2E080E58083D6
:100AA00081E081830895789484B5826084BD84B5A3
:100AB000816084BD85B5826085BD85B5816085BD59
:100AC00080916E00816080936E0010928100809111
:100AD0008100826080938100809181008160809399
:100AE0008100809180008160809380008091B100BE
:100AF00084608093B1008091B00081608093B000E9
:100B000080917A00846080937A0080917A0082607C
:100B100080937A0080917A00816080937A0080913E
:100B20007A00806880937A001092C100CFB7F89461
:100B300080917201811124C0EAE9F0E08491EEEA2B
:100B4000F0E09491E82FF0E0EE0FFF1FEA57FF4F1F
:100B5000A591B491EC91E92321F461E08AE00E942F
:100B6000A6008AE00E9487008CB580618CBD8CB5A0
:100B700080648CBD8DE00E9487008BE00E9487001E
:100B8000809172018F5F80937201CFBF68EE73E036
:100B900080E090E00E94170187E08093730110923B
:100BA000740191E09093750110927701E0919501A5
:100BB000F091960182E08083E0919101F0919201A1
:100BC0001082E0919301F091940180E18083109272
:100BD0009D01E0919901F0919A0186E08083E09176
:100BE0009701F0919801808180618083E091970165
:100BF000F0919801808188608083E0919701F09165
:100C00009801808180688083E0919701F09198013C
:100C100080818F7D80838AE08093000190937601AC
:100C20008FE692E1A3E8B0E4809378019093790194
:100C3000A0937A01B0937B018FE391E00E9453026D
:100C40006091760170E080E090E040E10E946502F2
:100C50008DE191E00E94530285E491E00E945302ED
:100C6000609178017091790180917A0190917B0176
:100C70004AE050E00E94A6020E9488038DE491E0C1
:100C80000E94530280E00E94240442E050E00E944F
:100C9000A6028EE591E00E94530282E00E942404A5
:100CA00042E050E00E94A60268EC70E080E090E034
:100CB0000E9417010E943E02E1CFA1E21A2EAA1B58
:100CC000BB1BFD010DC0AA1FBB1FEE1FFF1FA217FC
:100CD000B307E407F50720F0A21BB30BE40BF50BF9
:100CE000661F771F881F991F1A9469F76095709582
:100CF000809590959B01AC01BD01CF010895EE0F49
:100D0000FF1F0590F491E02D09945058BB27AA27A6
:100D10000E949D060C9410080E94020838F00E9460
:100D2000090820F039F49F3F19F426F40C94FF07CA
:100D30000EF4E095E7FB0C94F907E92F0E942108D7
:100D400058F3BA17620773078407950720F079F400
:100D5000A6F50C9443080EF4E0950B2EBA2FA02DA7
:100D60000B01B90190010C01CA01A0011124FF2758
:100D7000591B99F0593F50F4503E68F11A16F04053
:100D8000A22F232F342F4427585FF3CF4695379552
:100D90002795A795F0405395C9F77EF41F16BA0B17
:100DA000620B730B840BBAF09150A1F0FF0FBB1FC5
:100DB000661F771F881FC2F70EC0BA0F621F731F0E
:100DC000841F48F4879577956795B795F7959E3F6B
:100DD00008F0B0CF9395880F08F09927EE0F9795FC
:100DE000879508950E94D50708F481E008950E9430
:100DF0000B070C9410080E94090858F00E94020882
:100E000040F029F45F3F29F00C94F90751110C943C
:100E100044080C94FF070E94210868F39923B1F35A
:100E2000552391F3951B550BBB27AA276217730710
:100E3000840738F09F5F5F4F220F331F441FAA1FA4
:100E4000A9F335D00E2E3AF0E0E832D09150504060
:100E5000E695001CCAF72BD0FE2F29D0660F771F0E
:100E6000881FBB1F261737074807AB07B0E809F0F4
:100E7000BB0B802DBF01FF2793585F4F3AF09E3F79
:100E8000510578F00C94F9070C9444085F3FE4F3A3
:100E9000983ED4F3869577956795B795F7959F5FBC
:100EA000C9F7880F911D9695879597F90895E1E008
:100EB000660F771F881FBB1F621773078407BA0767
:100EC00020F0621B730B840BBA0BEE1F88F7E095C2
:100ED00008950E94290888F09F5798F0B92F992704
:100EE000B751B0F0E1F0660F771F881F991F1AF015
:100EF000BA95C9F714C0B13091F00E944308B1E02F
:100F000008950C944308672F782F8827B85F39F02D
:100F1000B93FCCF3869577956795B395D9F73EF4AD
:100F200090958095709561957F4F8F4F9F4F089555
:100F3000E89409C097FB3EF4909580957095619573
:100F40007F4F8F4F9F4F9923A9F0F92F96E9BB2729
:100F50009395F695879577956795B795F111F8CFA5
:100F6000FAF4BB0F11F460FF1BC06F5F7F4F8F4F10
:100F70009F4F16C0882311F096E911C0772321F006
:100F80009EE8872F762F05C0662371F096E8862F9E
:100F900070E060E02AF09A95660F771F881FDAF7F5
:100FA000880F9695879597F90895990F0008550F22
:100FB000AA0BE0E8FEEF16161706E807F907C0F0DF
:100FC00012161306E407F50798F0621B730B840BE7
:100FD000950B39F40A2661F0232B242B252B21F4C1
:100FE00008950A2609F4A140A6958FEF811D811D61
:100FF000089597F99F6780E870E060E008959FEF9B
:1010000080EC089500240A9416161706180609069F
:10101000089500240A94121613061406050608956E
:10102000092E0394000C11F4882352F0BB0F40F4F6
:10103000BF2B11F460FF04C06F5F7F4F8F4F9F4F36
:10104000089557FD9058440F551F59F05F3F71F0B8
:101050004795880F97FB991F61F09F3F79F087951F
:101060000895121613061406551FF2CF4695F1DFA8
:1010700008C0161617061806991FF1CF8695710538
:10108000610508940895E894BB2766277727CB016C
:1010900097F908950E94D50708F48FEF08950E94EC
:1010A00062080C9410080E94020838F00E94090897
:1010B00020F0952311F00C94F9070C94FF071124EC
:1010C0000C9444080E94210870F3959FC1F3950F7A
:1010D00050E0551F629FF001729FBB27F00DB11DBC
:1010E000639FAA27F00DB11DAA1F649F6627B00D4C
:1010F000A11D661F829F2227B00DA11D621F739F35
:10110000B00DA11D621F839FA00D611D221F749F42
:101110003327A00D611D231F849F600D211D822F89
:10112000762F6A2F11249F5750409AF0F1F08823B0
:101130004AF0EE0FFF1FBB1F661F771F881F9150DD
:101140005040A9F79E3F510580F00C94F9070C948C
:1011500044085F3FE4F3983ED4F38695779567950E
:10116000B795F795E7959F5FC1F7FE2B880F911D07
:101170009695879597F908950E94D507880B990B46
:10118000089581E090E0F8940C94C608F894FFCF9D
:101190000A00000000D50151019E017C0190011C54
:1011A000026E616E00696E66006F7666000D0A0061
:1011B000636F6E6669672076616C75653A200072B0
:1011C000657475726E20636F6E6669673A200052AF
:1011D00045463A200052454620563A200072656145
:1011E00064206368616E6E656C20303A2000726521
:1011F0006164206368616E6E656C20323A20000085
:00000001FF
